{"abi":[{"type":"function","name":"balances","inputs":[{"name":"","type":"address","internalType":"address"}],"outputs":[{"name":"","type":"uint256","internalType":"uint256"}],"stateMutability":"view"},{"type":"function","name":"deposit","inputs":[],"outputs":[],"stateMutability":"payable"},{"type":"function","name":"getBalance","inputs":[],"outputs":[{"name":"","type":"uint256","internalType":"uint256"}],"stateMutability":"view"},{"type":"function","name":"hoagies","inputs":[{"name":"a","type":"address","internalType":"address"}],"outputs":[],"stateMutability":"nonpayable"},{"type":"function","name":"safeHoagies","inputs":[{"name":"a","type":"address","internalType":"address"}],"outputs":[],"stateMutability":"nonpayable"},{"type":"function","name":"x","inputs":[],"outputs":[{"name":"","type":"uint256","internalType":"uint256"}],"stateMutability":"view"}],"bytecode":{"object":"0x6080604052348015600e575f5ffd5b506102858061001c5f395ff3fe608060405260043610610054575f3560e01c80630c55699c1461005857806312065fe01461007f57806327e235e314610091578063a71c9f56146100bc578063b8d26540146100dd578063d0e30db0146100fc575b5f5ffd5b348015610063575f5ffd5b5061006d60015481565b60405190815260200160405180910390f35b34801561008a575f5ffd5b504761006d565b34801561009c575f5ffd5b5061006d6100ab3660046101fd565b5f6020819052908152604090205481565b3480156100c7575f5ffd5b506100db6100d63660046101fd565b610104565b005b3480156100e8575f5ffd5b506100db6100f73660046101fd565b61016e565b6100db6101d8565b335f908152602081905260408082205481516319ff1d2160e01b8152915190926001600160a01b038516926319ff1d21926004808301939282900301818387803b158015610150575f5ffd5b505af1158015610162573d5f5f3e3d5ffd5b50506001805550505050565b335f90815260208190526040808220546001805581516319ff1d2160e01b8152915190926001600160a01b038516926319ff1d21926004808301939282900301818387803b1580156101be575f5ffd5b505af11580156101d0573d5f5f3e3d5ffd5b505050505050565b335f90815260208190526040812080543492906101f690849061022a565b9091555050565b5f6020828403121561020d575f5ffd5b81356001600160a01b0381168114610223575f5ffd5b9392505050565b8082018082111561024957634e487b7160e01b5f52601160045260245ffd5b9291505056fea2646970667358221220e564b6188da3d2c5c602bf0225461d77ae1d30417b601ad088bb8e39645f844464736f6c634300081c0033","linkReferences":{}},"methodIdentifiers":{"balances(address)":"27e235e3","deposit()":"d0e30db0","getBalance()":"12065fe0","hoagies(address)":"a71c9f56","safeHoagies(address)":"b8d26540","x()":"0c55699c"},"id":0}